{
  "_format": "hh-sol-artifact-1",
  "contractName": "Ironfish",
  "sourceName": "contracts/Ironfish.sol",
  "abi": [
    {
      "inputs": [],
      "stateMutability": "nonpayable",
      "type": "constructor"
    },
    {
      "anonymous": false,
      "inputs": [
        {
          "indexed": false,
          "internalType": "bytes32",
          "name": "ironfishAddress",
          "type": "bytes32"
        },
        {
          "indexed": false,
          "internalType": "bytes32",
          "name": "ironfishAssetId",
          "type": "bytes32"
        },
        {
          "indexed": false,
          "internalType": "address",
          "name": "contractAddress",
          "type": "address"
        },
        {
          "indexed": false,
          "internalType": "uint256",
          "name": "amount",
          "type": "uint256"
        }
      ],
      "name": "Shield",
      "type": "event"
    },
    {
      "inputs": [
        {
          "internalType": "bytes32",
          "name": "ironfishAddress",
          "type": "bytes32"
        },
        {
          "internalType": "bytes32",
          "name": "ironfishAssetId",
          "type": "bytes32"
        },
        {
          "internalType": "uint256",
          "name": "amount",
          "type": "uint256"
        }
      ],
      "name": "shield",
      "outputs": [],
      "stateMutability": "nonpayable",
      "type": "function"
    }
  ],
  "bytecode": "0x608060405234801561001057600080fd5b5061022c806100206000396000f3fe608060405234801561001057600080fd5b506004361061002b5760003560e01c806335e1b33814610030575b600080fd5b61004a600480360381019061004591906100ff565b61004c565b005b7f1fffcc3b15fe2e96f5a1025c0851b5b4ba914385af09d836e064f5e432132fa98383338460405161008194939291906101b1565b60405180910390a1505050565b600080fd5b6000819050919050565b6100a681610093565b81146100b157600080fd5b50565b6000813590506100c38161009d565b92915050565b6000819050919050565b6100dc816100c9565b81146100e757600080fd5b50565b6000813590506100f9816100d3565b92915050565b6000806000606084860312156101185761011761008e565b5b6000610126868287016100b4565b9350506020610137868287016100b4565b9250506040610148868287016100ea565b9150509250925092565b61015b81610093565b82525050565b600073ffffffffffffffffffffffffffffffffffffffff82169050919050565b600061018c82610161565b9050919050565b61019c81610181565b82525050565b6101ab816100c9565b82525050565b60006080820190506101c66000830187610152565b6101d36020830186610152565b6101e06040830185610193565b6101ed60608301846101a2565b9594505050505056fea264697066735822122015fceeeb1309f9444843d0939f94e14fad7028953140292a3d41499faae349c064736f6c63430008180033",
  "linkReferences": {},
  "deployedLinkReferences": {}
}