{
  "_format": "hh-sol-artifact-1",
  "contractName": "Ironfish",
  "sourceName": "contracts/Ironfish.sol",
  "abi": [
    {
      "inputs": [],
      "stateMutability": "nonpayable",
      "type": "constructor"
    },
    {
      "anonymous": false,
      "inputs": [
        {
          "indexed": false,
          "internalType": "bytes32",
          "name": "ironfishAddress",
          "type": "bytes32"
        },
        {
          "indexed": false,
          "internalType": "uint256",
          "name": "tokenId",
          "type": "uint256"
        },
        {
          "indexed": false,
          "internalType": "address",
          "name": "contractAddress",
          "type": "address"
        },
        {
          "indexed": false,
          "internalType": "uint256",
          "name": "amount",
          "type": "uint256"
        }
      ],
      "name": "Shield",
      "type": "event"
    },
    {
      "anonymous": false,
      "inputs": [
        {
          "indexed": false,
          "internalType": "address",
          "name": "contractAddress",
          "type": "address"
        },
        {
          "indexed": false,
          "internalType": "uint256",
          "name": "tokenId",
          "type": "uint256"
        },
        {
          "indexed": false,
          "internalType": "uint256",
          "name": "amount",
          "type": "uint256"
        }
      ],
      "name": "UnShield",
      "type": "event"
    },
    {
      "inputs": [
        {
          "internalType": "bytes32",
          "name": "ironfishAddress",
          "type": "bytes32"
        },
        {
          "internalType": "uint256",
          "name": "tokenId",
          "type": "uint256"
        },
        {
          "internalType": "uint256",
          "name": "amount",
          "type": "uint256"
        }
      ],
      "name": "shield",
      "outputs": [],
      "stateMutability": "nonpayable",
      "type": "function"
    },
    {
      "inputs": [
        {
          "internalType": "bytes32",
          "name": "ironfishAddress",
          "type": "bytes32"
        }
      ],
      "name": "shield_iron",
      "outputs": [],
      "stateMutability": "payable",
      "type": "function"
    },
    {
      "inputs": [
        {
          "internalType": "uint256",
          "name": "tokenId",
          "type": "uint256"
        },
        {
          "internalType": "uint256",
          "name": "amount",
          "type": "uint256"
        }
      ],
      "name": "unshield",
      "outputs": [],
      "stateMutability": "nonpayable",
      "type": "function"
    },
    {
      "inputs": [
        {
          "internalType": "address payable",
          "name": "_to",
          "type": "address"
        },
        {
          "internalType": "uint256",
          "name": "amount",
          "type": "uint256"
        }
      ],
      "name": "unshield_iron",
      "outputs": [],
      "stateMutability": "nonpayable",
      "type": "function"
    }
  ],
  "bytecode": "0x608060405234801561001057600080fd5b506105a5806100206000396000f3fe60806040526004361061003f5760003560e01c8063786b9bc4146100445780638bdad1011461006d578063a038e39514610089578063fc87b1af146100b2575b600080fd5b34801561005057600080fd5b5061006b6004803603810190610066919061025f565b6100db565b005b610087600480360381019061008291906102d5565b61011a565b005b34801561009557600080fd5b506100b060048036038101906100ab9190610302565b61015b565b005b3480156100be57600080fd5b506100d960048036038101906100d491906103b3565b61019d565b005b7fac7fb4669ee6bcb4e65d1a3ed26d30037ba448f57ef727751be6c72f66fc428133838360405161010e93929190610423565b60405180910390a15050565b7f06e7e7af2833ef6acd0fa82a0c811fcae2a9743776b07004e67152c4e76e69fe816000303460405161015094939291906104ae565b60405180910390a150565b7f06e7e7af2833ef6acd0fa82a0c811fcae2a9743776b07004e67152c4e76e69fe8383338460405161019094939291906104f3565b60405180910390a1505050565b8173ffffffffffffffffffffffffffffffffffffffff166108fc829081150290604051600060405180830381858888f193505050501580156101e3573d6000803e3d6000fd5b507fac7fb4669ee6bcb4e65d1a3ed26d30037ba448f57ef727751be6c72f66fc42813060008360405161021893929190610538565b60405180910390a15050565b600080fd5b6000819050919050565b61023c81610229565b811461024757600080fd5b50565b60008135905061025981610233565b92915050565b6000806040838503121561027657610275610224565b5b60006102848582860161024a565b92505060206102958582860161024a565b9150509250929050565b6000819050919050565b6102b28161029f565b81146102bd57600080fd5b50565b6000813590506102cf816102a9565b92915050565b6000602082840312156102eb576102ea610224565b5b60006102f9848285016102c0565b91505092915050565b60008060006060848603121561031b5761031a610224565b5b6000610329868287016102c0565b935050602061033a8682870161024a565b925050604061034b8682870161024a565b9150509250925092565b600073ffffffffffffffffffffffffffffffffffffffff82169050919050565b600061038082610355565b9050919050565b61039081610375565b811461039b57600080fd5b50565b6000813590506103ad81610387565b92915050565b600080604083850312156103ca576103c9610224565b5b60006103d88582860161039e565b92505060206103e98582860161024a565b9150509250929050565b60006103fe82610355565b9050919050565b61040e816103f3565b82525050565b61041d81610229565b82525050565b60006060820190506104386000830186610405565b6104456020830185610414565b6104526040830184610414565b949350505050565b6104638161029f565b82525050565b6000819050919050565b6000819050919050565b600061049861049361048e84610469565b610473565b610229565b9050919050565b6104a88161047d565b82525050565b60006080820190506104c3600083018761045a565b6104d0602083018661049f565b6104dd6040830185610405565b6104ea6060830184610414565b95945050505050565b6000608082019050610508600083018761045a565b6105156020830186610414565b6105226040830185610405565b61052f6060830184610414565b95945050505050565b600060608201905061054d6000830186610405565b61055a602083018561049f565b6105676040830184610414565b94935050505056fea26469706673582212204d1e2a4a4fa6f5d4c196f09969d8a7e49438b9004ac1df453a368705e90ccecb64736f6c63430008180033",
  "linkReferences": {},
  "deployedLinkReferences": {}
}