{
  "_format": "hh-sol-artifact-1",
  "contractName": "Ironfish",
  "sourceName": "contracts/Ironfish.sol",
  "abi": [
    {
      "inputs": [],
      "stateMutability": "nonpayable",
      "type": "constructor"
    },
    {
      "anonymous": false,
      "inputs": [
        {
          "indexed": false,
          "internalType": "bytes32",
          "name": "ironfishAddress",
          "type": "bytes32"
        },
        {
          "indexed": false,
          "internalType": "uint256",
          "name": "tokenId",
          "type": "uint256"
        },
        {
          "indexed": false,
          "internalType": "address",
          "name": "contractAddress",
          "type": "address"
        },
        {
          "indexed": false,
          "internalType": "uint256",
          "name": "amount",
          "type": "uint256"
        }
      ],
      "name": "Shield",
      "type": "event"
    },
    {
      "anonymous": false,
      "inputs": [
        {
          "indexed": false,
          "internalType": "address",
          "name": "contractAddress",
          "type": "address"
        },
        {
          "indexed": false,
          "internalType": "uint256",
          "name": "tokenId",
          "type": "uint256"
        },
        {
          "indexed": false,
          "internalType": "uint256",
          "name": "amount",
          "type": "uint256"
        }
      ],
      "name": "UnShield",
      "type": "event"
    },
    {
      "inputs": [
        {
          "internalType": "bytes32",
          "name": "ironfishAddress",
          "type": "bytes32"
        },
        {
          "internalType": "uint256",
          "name": "tokenId",
          "type": "uint256"
        },
        {
          "internalType": "uint256",
          "name": "amount",
          "type": "uint256"
        }
      ],
      "name": "shield",
      "outputs": [],
      "stateMutability": "nonpayable",
      "type": "function"
    },
    {
      "inputs": [
        {
          "internalType": "bytes32",
          "name": "ironfishAddress",
          "type": "bytes32"
        }
      ],
      "name": "shield_iron",
      "outputs": [],
      "stateMutability": "payable",
      "type": "function"
    },
    {
      "inputs": [
        {
          "internalType": "uint256",
          "name": "tokenId",
          "type": "uint256"
        },
        {
          "internalType": "uint256",
          "name": "amount",
          "type": "uint256"
        }
      ],
      "name": "unshield",
      "outputs": [],
      "stateMutability": "nonpayable",
      "type": "function"
    },
    {
      "inputs": [
        {
          "internalType": "address payable",
          "name": "_to",
          "type": "address"
        },
        {
          "internalType": "uint256",
          "name": "amount",
          "type": "uint256"
        }
      ],
      "name": "unshield_iron",
      "outputs": [],
      "stateMutability": "nonpayable",
      "type": "function"
    }
  ],
  "bytecode": "0x608060405234801561001057600080fd5b5061055e806100206000396000f3fe60806040526004361061003f5760003560e01c8063786b9bc4146100445780638bdad1011461006d578063a038e39514610089578063fc87b1af146100b2575b600080fd5b34801561005057600080fd5b5061006b60048036038101906100669190610218565b6100db565b005b6100876004803603810190610082919061028e565b61011a565b005b34801561009557600080fd5b506100b060048036038101906100ab91906102bb565b61015b565b005b3480156100be57600080fd5b506100d960048036038101906100d4919061036c565b61019d565b005b7fac7fb4669ee6bcb4e65d1a3ed26d30037ba448f57ef727751be6c72f66fc428133838360405161010e939291906103dc565b60405180910390a15050565b7f06e7e7af2833ef6acd0fa82a0c811fcae2a9743776b07004e67152c4e76e69fe81600030346040516101509493929190610467565b60405180910390a150565b7f06e7e7af2833ef6acd0fa82a0c811fcae2a9743776b07004e67152c4e76e69fe8383338460405161019094939291906104ac565b60405180910390a1505050565b7fac7fb4669ee6bcb4e65d1a3ed26d30037ba448f57ef727751be6c72f66fc4281306000836040516101d1939291906104f1565b60405180910390a15050565b600080fd5b6000819050919050565b6101f5816101e2565b811461020057600080fd5b50565b600081359050610212816101ec565b92915050565b6000806040838503121561022f5761022e6101dd565b5b600061023d85828601610203565b925050602061024e85828601610203565b9150509250929050565b6000819050919050565b61026b81610258565b811461027657600080fd5b50565b60008135905061028881610262565b92915050565b6000602082840312156102a4576102a36101dd565b5b60006102b284828501610279565b91505092915050565b6000806000606084860312156102d4576102d36101dd565b5b60006102e286828701610279565b93505060206102f386828701610203565b925050604061030486828701610203565b9150509250925092565b600073ffffffffffffffffffffffffffffffffffffffff82169050919050565b60006103398261030e565b9050919050565b6103498161032e565b811461035457600080fd5b50565b60008135905061036681610340565b92915050565b60008060408385031215610383576103826101dd565b5b600061039185828601610357565b92505060206103a285828601610203565b9150509250929050565b60006103b78261030e565b9050919050565b6103c7816103ac565b82525050565b6103d6816101e2565b82525050565b60006060820190506103f160008301866103be565b6103fe60208301856103cd565b61040b60408301846103cd565b949350505050565b61041c81610258565b82525050565b6000819050919050565b6000819050919050565b600061045161044c61044784610422565b61042c565b6101e2565b9050919050565b61046181610436565b82525050565b600060808201905061047c6000830187610413565b6104896020830186610458565b61049660408301856103be565b6104a360608301846103cd565b95945050505050565b60006080820190506104c16000830187610413565b6104ce60208301866103cd565b6104db60408301856103be565b6104e860608301846103cd565b95945050505050565b600060608201905061050660008301866103be565b6105136020830185610458565b61052060408301846103cd565b94935050505056fea2646970667358221220a1673ad35e30243f52753139db0345f1f860f4d1c764d01a215a98b8e72d443464736f6c63430008180033",
  "linkReferences": {},
  "deployedLinkReferences": {}
}