{
  "_format": "hh-sol-artifact-1",
  "contractName": "GoldToken",
  "sourceName": "contracts/GoldToken.sol",
  "abi": [
    {
      "inputs": [
        {
          "internalType": "uint256",
          "name": "initialSupply",
          "type": "uint256"
        },
        {
          "internalType": "address",
          "name": "ironfishContractAddress",
          "type": "address"
        }
      ],
      "stateMutability": "nonpayable",
      "type": "constructor"
    },
    {
      "inputs": [
        {
          "internalType": "address",
          "name": "spender",
          "type": "address"
        },
        {
          "internalType": "uint256",
          "name": "allowance",
          "type": "uint256"
        },
        {
          "internalType": "uint256",
          "name": "needed",
          "type": "uint256"
        }
      ],
      "name": "ERC20InsufficientAllowance",
      "type": "error"
    },
    {
      "inputs": [
        {
          "internalType": "address",
          "name": "sender",
          "type": "address"
        },
        {
          "internalType": "uint256",
          "name": "balance",
          "type": "uint256"
        },
        {
          "internalType": "uint256",
          "name": "needed",
          "type": "uint256"
        }
      ],
      "name": "ERC20InsufficientBalance",
      "type": "error"
    },
    {
      "inputs": [
        {
          "internalType": "address",
          "name": "approver",
          "type": "address"
        }
      ],
      "name": "ERC20InvalidApprover",
      "type": "error"
    },
    {
      "inputs": [
        {
          "internalType": "address",
          "name": "receiver",
          "type": "address"
        }
      ],
      "name": "ERC20InvalidReceiver",
      "type": "error"
    },
    {
      "inputs": [
        {
          "internalType": "address",
          "name": "sender",
          "type": "address"
        }
      ],
      "name": "ERC20InvalidSender",
      "type": "error"
    },
    {
      "inputs": [
        {
          "internalType": "address",
          "name": "spender",
          "type": "address"
        }
      ],
      "name": "ERC20InvalidSpender",
      "type": "error"
    },
    {
      "anonymous": false,
      "inputs": [
        {
          "indexed": true,
          "internalType": "address",
          "name": "owner",
          "type": "address"
        },
        {
          "indexed": true,
          "internalType": "address",
          "name": "spender",
          "type": "address"
        },
        {
          "indexed": false,
          "internalType": "uint256",
          "name": "value",
          "type": "uint256"
        }
      ],
      "name": "Approval",
      "type": "event"
    },
    {
      "anonymous": false,
      "inputs": [
        {
          "indexed": true,
          "internalType": "address",
          "name": "from",
          "type": "address"
        },
        {
          "indexed": true,
          "internalType": "address",
          "name": "to",
          "type": "address"
        },
        {
          "indexed": false,
          "internalType": "uint256",
          "name": "value",
          "type": "uint256"
        }
      ],
      "name": "Transfer",
      "type": "event"
    },
    {
      "inputs": [
        {
          "internalType": "address",
          "name": "owner",
          "type": "address"
        },
        {
          "internalType": "address",
          "name": "spender",
          "type": "address"
        }
      ],
      "name": "allowance",
      "outputs": [
        {
          "internalType": "uint256",
          "name": "",
          "type": "uint256"
        }
      ],
      "stateMutability": "view",
      "type": "function"
    },
    {
      "inputs": [
        {
          "internalType": "address",
          "name": "spender",
          "type": "address"
        },
        {
          "internalType": "uint256",
          "name": "value",
          "type": "uint256"
        }
      ],
      "name": "approve",
      "outputs": [
        {
          "internalType": "bool",
          "name": "",
          "type": "bool"
        }
      ],
      "stateMutability": "nonpayable",
      "type": "function"
    },
    {
      "inputs": [
        {
          "internalType": "address",
          "name": "account",
          "type": "address"
        }
      ],
      "name": "balanceOf",
      "outputs": [
        {
          "internalType": "uint256",
          "name": "",
          "type": "uint256"
        }
      ],
      "stateMutability": "view",
      "type": "function"
    },
    {
      "inputs": [],
      "name": "decimals",
      "outputs": [
        {
          "internalType": "uint8",
          "name": "",
          "type": "uint8"
        }
      ],
      "stateMutability": "view",
      "type": "function"
    },
    {
      "inputs": [],
      "name": "ironfishContract",
      "outputs": [
        {
          "internalType": "contract IIronfish",
          "name": "",
          "type": "address"
        }
      ],
      "stateMutability": "view",
      "type": "function"
    },
    {
      "inputs": [],
      "name": "name",
      "outputs": [
        {
          "internalType": "string",
          "name": "",
          "type": "string"
        }
      ],
      "stateMutability": "view",
      "type": "function"
    },
    {
      "inputs": [
        {
          "internalType": "bytes32",
          "name": "ironfishAddress",
          "type": "bytes32"
        },
        {
          "internalType": "uint256",
          "name": "amount",
          "type": "uint256"
        }
      ],
      "name": "shield",
      "outputs": [],
      "stateMutability": "nonpayable",
      "type": "function"
    },
    {
      "inputs": [],
      "name": "symbol",
      "outputs": [
        {
          "internalType": "string",
          "name": "",
          "type": "string"
        }
      ],
      "stateMutability": "view",
      "type": "function"
    },
    {
      "inputs": [],
      "name": "totalSupply",
      "outputs": [
        {
          "internalType": "uint256",
          "name": "",
          "type": "uint256"
        }
      ],
      "stateMutability": "view",
      "type": "function"
    },
    {
      "inputs": [
        {
          "internalType": "address",
          "name": "to",
          "type": "address"
        },
        {
          "internalType": "uint256",
          "name": "value",
          "type": "uint256"
        }
      ],
      "name": "transfer",
      "outputs": [
        {
          "internalType": "bool",
          "name": "",
          "type": "bool"
        }
      ],
      "stateMutability": "nonpayable",
      "type": "function"
    },
    {
      "inputs": [
        {
          "internalType": "address",
          "name": "from",
          "type": "address"
        },
        {
          "internalType": "address",
          "name": "to",
          "type": "address"
        },
        {
          "internalType": "uint256",
          "name": "value",
          "type": "uint256"
        }
      ],
      "name": "transferFrom",
      "outputs": [
        {
          "internalType": "bool",
          "name": "",
          "type": "bool"
        }
      ],
      "stateMutability": "nonpayable",
      "type": "function"
    },
    {
      "inputs": [
        {
          "internalType": "uint256",
          "name": "amount",
          "type": "uint256"
        }
      ],
      "name": "unshield",
      "outputs": [],
      "stateMutability": "nonpayable",
      "type": "function"
    }
  ],
  "bytecode": "0x60806040523480156200001157600080fd5b5060405162001ce838038062001ce8833981810160405281019062000037919062000486565b6040518060400160405280600981526020017f476f6c64546f6b656e00000000000000000000000000000000000000000000008152506040518060400160405280600381526020017f47544b00000000000000000000000000000000000000000000000000000000008152508160039081620000b491906200073d565b508060049081620000c691906200073d565b505050620000db33836200012460201b60201c565b80600560006101000a81548173ffffffffffffffffffffffffffffffffffffffff021916908373ffffffffffffffffffffffffffffffffffffffff160217905550505062000927565b600073ffffffffffffffffffffffffffffffffffffffff168273ffffffffffffffffffffffffffffffffffffffff1603620001995760006040517fec442f0500000000000000000000000000000000000000000000000000000000815260040162000190919062000835565b60405180910390fd5b620001ad60008383620001b160201b60201c565b5050565b600073ffffffffffffffffffffffffffffffffffffffff168373ffffffffffffffffffffffffffffffffffffffff160362000207578060026000828254620001fa919062000881565b92505081905550620002dd565b60008060008573ffffffffffffffffffffffffffffffffffffffff1673ffffffffffffffffffffffffffffffffffffffff1681526020019081526020016000205490508181101562000296578381836040517fe450d38c0000000000000000000000000000000000000000000000000000000081526004016200028d93929190620008cd565b60405180910390fd5b8181036000808673ffffffffffffffffffffffffffffffffffffffff1673ffffffffffffffffffffffffffffffffffffffff16815260200190815260200160002081905550505b600073ffffffffffffffffffffffffffffffffffffffff168273ffffffffffffffffffffffffffffffffffffffff160362000328578060026000828254039250508190555062000375565b806000808473ffffffffffffffffffffffffffffffffffffffff1673ffffffffffffffffffffffffffffffffffffffff168152602001908152602001600020600082825401925050819055505b8173ffffffffffffffffffffffffffffffffffffffff168373ffffffffffffffffffffffffffffffffffffffff167fddf252ad1be2c89b69c2b068fc378daa952ba7f163c4a11628f55a4df523b3ef83604051620003d491906200090a565b60405180910390a3505050565b600080fd5b6000819050919050565b620003fb81620003e6565b81146200040757600080fd5b50565b6000815190506200041b81620003f0565b92915050565b600073ffffffffffffffffffffffffffffffffffffffff82169050919050565b60006200044e8262000421565b9050919050565b620004608162000441565b81146200046c57600080fd5b50565b600081519050620004808162000455565b92915050565b60008060408385031215620004a0576200049f620003e1565b5b6000620004b0858286016200040a565b9250506020620004c3858286016200046f565b9150509250929050565b600081519050919050565b7f4e487b7100000000000000000000000000000000000000000000000000000000600052604160045260246000fd5b7f4e487b7100000000000000000000000000000000000000000000000000000000600052602260045260246000fd5b600060028204905060018216806200054f57607f821691505b60208210810362000565576200056462000507565b5b50919050565b60008190508160005260206000209050919050565b60006020601f8301049050919050565b600082821b905092915050565b600060088302620005cf7fffffffffffffffffffffffffffffffffffffffffffffffffffffffffffffffff8262000590565b620005db868362000590565b95508019841693508086168417925050509392505050565b6000819050919050565b60006200061e620006186200061284620003e6565b620005f3565b620003e6565b9050919050565b6000819050919050565b6200063a83620005fd565b62000652620006498262000625565b8484546200059d565b825550505050565b600090565b620006696200065a565b620006768184846200062f565b505050565b5b818110156200069e57620006926000826200065f565b6001810190506200067c565b5050565b601f821115620006ed57620006b7816200056b565b620006c28462000580565b81016020851015620006d2578190505b620006ea620006e18562000580565b8301826200067b565b50505b505050565b600082821c905092915050565b60006200071260001984600802620006f2565b1980831691505092915050565b60006200072d8383620006ff565b9150826002028217905092915050565b6200074882620004cd565b67ffffffffffffffff811115620007645762000763620004d8565b5b62000770825462000536565b6200077d828285620006a2565b600060209050601f831160018114620007b55760008415620007a0578287015190505b620007ac85826200071f565b8655506200081c565b601f198416620007c5866200056b565b60005b82811015620007ef57848901518255600182019150602085019450602081019050620007c8565b868310156200080f57848901516200080b601f891682620006ff565b8355505b6001600288020188555050505b505050505050565b6200082f8162000441565b82525050565b60006020820190506200084c600083018462000824565b92915050565b7f4e487b7100000000000000000000000000000000000000000000000000000000600052601160045260246000fd5b60006200088e82620003e6565b91506200089b83620003e6565b9250828201905080821115620008b657620008b562000852565b5b92915050565b620008c781620003e6565b82525050565b6000606082019050620008e4600083018662000824565b620008f36020830185620008bc565b620009026040830184620008bc565b949350505050565b6000602082019050620009216000830184620008bc565b92915050565b6113b180620009376000396000f3fe608060405234801561001057600080fd5b50600436106100b45760003560e01c806349db61be1161007157806349db61be1461019157806370a08231146101ad57806395d89b41146101dd578063a9059cbb146101fb578063dafd79831461022b578063dd62ed3e14610247576100b4565b806306fdde03146100b9578063095ea7b3146100d757806318160ddd146101075780631a23a4331461012557806323b872dd14610143578063313ce56714610173575b600080fd5b6100c1610277565b6040516100ce9190610dd2565b60405180910390f35b6100f160048036038101906100ec9190610e8d565b610309565b6040516100fe9190610ee8565b60405180910390f35b61010f61032c565b60405161011c9190610f12565b60405180910390f35b61012d610336565b60405161013a9190610f8c565b60405180910390f35b61015d60048036038101906101589190610fa7565b61035c565b60405161016a9190610ee8565b60405180910390f35b61017b61038b565b6040516101889190611016565b60405180910390f35b6101ab60048036038101906101a69190611067565b610394565b005b6101c760048036038101906101c291906110a7565b61047f565b6040516101d49190610f12565b60405180910390f35b6101e56104c7565b6040516101f29190610dd2565b60405180910390f35b61021560048036038101906102109190610e8d565b610559565b6040516102229190610ee8565b60405180910390f35b610245600480360381019061024091906110d4565b61057c565b005b610261600480360381019061025c9190611101565b610619565b60405161026e9190610f12565b60405180910390f35b60606003805461028690611170565b80601f01602080910402602001604051908101604052809291908181526020018280546102b290611170565b80156102ff5780601f106102d4576101008083540402835291602001916102ff565b820191906000526020600020905b8154815290600101906020018083116102e257829003601f168201915b5050505050905090565b6000806103146106a0565b90506103218185856106a8565b600191505092915050565b6000600254905090565b600560009054906101000a900473ffffffffffffffffffffffffffffffffffffffff1681565b6000806103676106a0565b90506103748582856106ba565b61037f85858561074e565b60019150509392505050565b60006012905090565b8061039e3361047f565b10156103df576040517f08c379a00000000000000000000000000000000000000000000000000000000081526004016103d6906111ed565b60405180910390fd5b6103e93382610842565b600560009054906101000a900473ffffffffffffffffffffffffffffffffffffffff1673ffffffffffffffffffffffffffffffffffffffff1663a038e395836001846040518463ffffffff1660e01b815260040161044993929190611257565b600060405180830381600087803b15801561046357600080fd5b505af1158015610477573d6000803e3d6000fd5b505050505050565b60008060008373ffffffffffffffffffffffffffffffffffffffff1673ffffffffffffffffffffffffffffffffffffffff168152602001908152602001600020549050919050565b6060600480546104d690611170565b80601f016020809104026020016040519081016040528092919081815260200182805461050290611170565b801561054f5780601f106105245761010080835404028352916020019161054f565b820191906000526020600020905b81548152906001019060200180831161053257829003601f168201915b5050505050905090565b6000806105646106a0565b905061057181858561074e565b600191505092915050565b600560009054906101000a900473ffffffffffffffffffffffffffffffffffffffff1673ffffffffffffffffffffffffffffffffffffffff1663786b9bc46001836040518363ffffffff1660e01b81526004016105da92919061128e565b600060405180830381600087803b1580156105f457600080fd5b505af1158015610608573d6000803e3d6000fd5b5050505061061633826108c4565b50565b6000600160008473ffffffffffffffffffffffffffffffffffffffff1673ffffffffffffffffffffffffffffffffffffffff16815260200190815260200160002060008373ffffffffffffffffffffffffffffffffffffffff1673ffffffffffffffffffffffffffffffffffffffff16815260200190815260200160002054905092915050565b600033905090565b6106b58383836001610946565b505050565b60006106c68484610619565b90507fffffffffffffffffffffffffffffffffffffffffffffffffffffffffffffffff81146107485781811015610738578281836040517ffb8f41b200000000000000000000000000000000000000000000000000000000815260040161072f939291906112c6565b60405180910390fd5b61074784848484036000610946565b5b50505050565b600073ffffffffffffffffffffffffffffffffffffffff168373ffffffffffffffffffffffffffffffffffffffff16036107c05760006040517f96c6fd1e0000000000000000000000000000000000000000000000000000000081526004016107b791906112fd565b60405180910390fd5b600073ffffffffffffffffffffffffffffffffffffffff168273ffffffffffffffffffffffffffffffffffffffff16036108325760006040517fec442f0500000000000000000000000000000000000000000000000000000000815260040161082991906112fd565b60405180910390fd5b61083d838383610b1d565b505050565b600073ffffffffffffffffffffffffffffffffffffffff168273ffffffffffffffffffffffffffffffffffffffff16036108b45760006040517f96c6fd1e0000000000000000000000000000000000000000000000000000000081526004016108ab91906112fd565b60405180910390fd5b6108c082600083610b1d565b5050565b600073ffffffffffffffffffffffffffffffffffffffff168273ffffffffffffffffffffffffffffffffffffffff16036109365760006040517fec442f0500000000000000000000000000000000000000000000000000000000815260040161092d91906112fd565b60405180910390fd5b61094260008383610b1d565b5050565b600073ffffffffffffffffffffffffffffffffffffffff168473ffffffffffffffffffffffffffffffffffffffff16036109b85760006040517fe602df050000000000000000000000000000000000000000000000000000000081526004016109af91906112fd565b60405180910390fd5b600073ffffffffffffffffffffffffffffffffffffffff168373ffffffffffffffffffffffffffffffffffffffff1603610a2a5760006040517f94280d62000000000000000000000000000000000000000000000000000000008152600401610a2191906112fd565b60405180910390fd5b81600160008673ffffffffffffffffffffffffffffffffffffffff1673ffffffffffffffffffffffffffffffffffffffff16815260200190815260200160002060008573ffffffffffffffffffffffffffffffffffffffff1673ffffffffffffffffffffffffffffffffffffffff168152602001908152602001600020819055508015610b17578273ffffffffffffffffffffffffffffffffffffffff168473ffffffffffffffffffffffffffffffffffffffff167f8c5be1e5ebec7d5bd14f71427d1e84f3dd0314c0f7b2291e5b200ac8c7c3b92584604051610b0e9190610f12565b60405180910390a35b50505050565b600073ffffffffffffffffffffffffffffffffffffffff168373ffffffffffffffffffffffffffffffffffffffff1603610b6f578060026000828254610b639190611347565b92505081905550610c42565b60008060008573ffffffffffffffffffffffffffffffffffffffff1673ffffffffffffffffffffffffffffffffffffffff16815260200190815260200160002054905081811015610bfb578381836040517fe450d38c000000000000000000000000000000000000000000000000000000008152600401610bf2939291906112c6565b60405180910390fd5b8181036000808673ffffffffffffffffffffffffffffffffffffffff1673ffffffffffffffffffffffffffffffffffffffff16815260200190815260200160002081905550505b600073ffffffffffffffffffffffffffffffffffffffff168273ffffffffffffffffffffffffffffffffffffffff1603610c8b5780600260008282540392505081905550610cd8565b806000808473ffffffffffffffffffffffffffffffffffffffff1673ffffffffffffffffffffffffffffffffffffffff168152602001908152602001600020600082825401925050819055505b8173ffffffffffffffffffffffffffffffffffffffff168373ffffffffffffffffffffffffffffffffffffffff167fddf252ad1be2c89b69c2b068fc378daa952ba7f163c4a11628f55a4df523b3ef83604051610d359190610f12565b60405180910390a3505050565b600081519050919050565b600082825260208201905092915050565b60005b83811015610d7c578082015181840152602081019050610d61565b60008484015250505050565b6000601f19601f8301169050919050565b6000610da482610d42565b610dae8185610d4d565b9350610dbe818560208601610d5e565b610dc781610d88565b840191505092915050565b60006020820190508181036000830152610dec8184610d99565b905092915050565b600080fd5b600073ffffffffffffffffffffffffffffffffffffffff82169050919050565b6000610e2482610df9565b9050919050565b610e3481610e19565b8114610e3f57600080fd5b50565b600081359050610e5181610e2b565b92915050565b6000819050919050565b610e6a81610e57565b8114610e7557600080fd5b50565b600081359050610e8781610e61565b92915050565b60008060408385031215610ea457610ea3610df4565b5b6000610eb285828601610e42565b9250506020610ec385828601610e78565b9150509250929050565b60008115159050919050565b610ee281610ecd565b82525050565b6000602082019050610efd6000830184610ed9565b92915050565b610f0c81610e57565b82525050565b6000602082019050610f276000830184610f03565b92915050565b6000819050919050565b6000610f52610f4d610f4884610df9565b610f2d565b610df9565b9050919050565b6000610f6482610f37565b9050919050565b6000610f7682610f59565b9050919050565b610f8681610f6b565b82525050565b6000602082019050610fa16000830184610f7d565b92915050565b600080600060608486031215610fc057610fbf610df4565b5b6000610fce86828701610e42565b9350506020610fdf86828701610e42565b9250506040610ff086828701610e78565b9150509250925092565b600060ff82169050919050565b61101081610ffa565b82525050565b600060208201905061102b6000830184611007565b92915050565b6000819050919050565b61104481611031565b811461104f57600080fd5b50565b6000813590506110618161103b565b92915050565b6000806040838503121561107e5761107d610df4565b5b600061108c85828601611052565b925050602061109d85828601610e78565b9150509250929050565b6000602082840312156110bd576110bc610df4565b5b60006110cb84828501610e42565b91505092915050565b6000602082840312156110ea576110e9610df4565b5b60006110f884828501610e78565b91505092915050565b6000806040838503121561111857611117610df4565b5b600061112685828601610e42565b925050602061113785828601610e42565b9150509250929050565b7f4e487b7100000000000000000000000000000000000000000000000000000000600052602260045260246000fd5b6000600282049050600182168061118857607f821691505b60208210810361119b5761119a611141565b5b50919050565b7f496e73756666696369656e742062616c616e6365000000000000000000000000600082015250565b60006111d7601483610d4d565b91506111e2826111a1565b602082019050919050565b60006020820190508181036000830152611206816111ca565b9050919050565b61121681611031565b82525050565b6000819050919050565b600061124161123c6112378461121c565b610f2d565b610e57565b9050919050565b61125181611226565b82525050565b600060608201905061126c600083018661120d565b6112796020830185611248565b6112866040830184610f03565b949350505050565b60006040820190506112a36000830185611248565b6112b06020830184610f03565b9392505050565b6112c081610e19565b82525050565b60006060820190506112db60008301866112b7565b6112e86020830185610f03565b6112f56040830184610f03565b949350505050565b600060208201905061131260008301846112b7565b92915050565b7f4e487b7100000000000000000000000000000000000000000000000000000000600052601160045260246000fd5b600061135282610e57565b915061135d83610e57565b925082820190508082111561137557611374611318565b5b9291505056fea26469706673582212203ee3e6c18432f493ce1ed67c9aa208fc470f92ec9ca8184787928704b9ca476164736f6c63430008180033",
  "linkReferences": {},
  "deployedLinkReferences": {}
}