{
  "_format": "hh-sol-artifact-1",
  "contractName": "GoldToken",
  "sourceName": "contracts/GoldToken.sol",
  "abi": [
    {
      "inputs": [
        {
          "internalType": "uint256",
          "name": "initialSupply",
          "type": "uint256"
        },
        {
          "internalType": "address",
          "name": "ironfishContractAddress",
          "type": "address"
        }
      ],
      "stateMutability": "nonpayable",
      "type": "constructor"
    },
    {
      "inputs": [
        {
          "internalType": "address",
          "name": "spender",
          "type": "address"
        },
        {
          "internalType": "uint256",
          "name": "allowance",
          "type": "uint256"
        },
        {
          "internalType": "uint256",
          "name": "needed",
          "type": "uint256"
        }
      ],
      "name": "ERC20InsufficientAllowance",
      "type": "error"
    },
    {
      "inputs": [
        {
          "internalType": "address",
          "name": "sender",
          "type": "address"
        },
        {
          "internalType": "uint256",
          "name": "balance",
          "type": "uint256"
        },
        {
          "internalType": "uint256",
          "name": "needed",
          "type": "uint256"
        }
      ],
      "name": "ERC20InsufficientBalance",
      "type": "error"
    },
    {
      "inputs": [
        {
          "internalType": "address",
          "name": "approver",
          "type": "address"
        }
      ],
      "name": "ERC20InvalidApprover",
      "type": "error"
    },
    {
      "inputs": [
        {
          "internalType": "address",
          "name": "receiver",
          "type": "address"
        }
      ],
      "name": "ERC20InvalidReceiver",
      "type": "error"
    },
    {
      "inputs": [
        {
          "internalType": "address",
          "name": "sender",
          "type": "address"
        }
      ],
      "name": "ERC20InvalidSender",
      "type": "error"
    },
    {
      "inputs": [
        {
          "internalType": "address",
          "name": "spender",
          "type": "address"
        }
      ],
      "name": "ERC20InvalidSpender",
      "type": "error"
    },
    {
      "anonymous": false,
      "inputs": [
        {
          "indexed": true,
          "internalType": "address",
          "name": "owner",
          "type": "address"
        },
        {
          "indexed": true,
          "internalType": "address",
          "name": "spender",
          "type": "address"
        },
        {
          "indexed": false,
          "internalType": "uint256",
          "name": "value",
          "type": "uint256"
        }
      ],
      "name": "Approval",
      "type": "event"
    },
    {
      "anonymous": false,
      "inputs": [
        {
          "indexed": true,
          "internalType": "address",
          "name": "from",
          "type": "address"
        },
        {
          "indexed": true,
          "internalType": "address",
          "name": "to",
          "type": "address"
        },
        {
          "indexed": false,
          "internalType": "uint256",
          "name": "value",
          "type": "uint256"
        }
      ],
      "name": "Transfer",
      "type": "event"
    },
    {
      "inputs": [
        {
          "internalType": "address",
          "name": "owner",
          "type": "address"
        },
        {
          "internalType": "address",
          "name": "spender",
          "type": "address"
        }
      ],
      "name": "allowance",
      "outputs": [
        {
          "internalType": "uint256",
          "name": "",
          "type": "uint256"
        }
      ],
      "stateMutability": "view",
      "type": "function"
    },
    {
      "inputs": [
        {
          "internalType": "address",
          "name": "spender",
          "type": "address"
        },
        {
          "internalType": "uint256",
          "name": "value",
          "type": "uint256"
        }
      ],
      "name": "approve",
      "outputs": [
        {
          "internalType": "bool",
          "name": "",
          "type": "bool"
        }
      ],
      "stateMutability": "nonpayable",
      "type": "function"
    },
    {
      "inputs": [
        {
          "internalType": "address",
          "name": "account",
          "type": "address"
        }
      ],
      "name": "balanceOf",
      "outputs": [
        {
          "internalType": "uint256",
          "name": "",
          "type": "uint256"
        }
      ],
      "stateMutability": "view",
      "type": "function"
    },
    {
      "inputs": [],
      "name": "decimals",
      "outputs": [
        {
          "internalType": "uint8",
          "name": "",
          "type": "uint8"
        }
      ],
      "stateMutability": "view",
      "type": "function"
    },
    {
      "inputs": [],
      "name": "ironfishContract",
      "outputs": [
        {
          "internalType": "contract IIronfish",
          "name": "",
          "type": "address"
        }
      ],
      "stateMutability": "view",
      "type": "function"
    },
    {
      "inputs": [],
      "name": "name",
      "outputs": [
        {
          "internalType": "string",
          "name": "",
          "type": "string"
        }
      ],
      "stateMutability": "view",
      "type": "function"
    },
    {
      "inputs": [
        {
          "internalType": "bytes32",
          "name": "ironfishAddress",
          "type": "bytes32"
        },
        {
          "internalType": "uint256",
          "name": "amount",
          "type": "uint256"
        }
      ],
      "name": "shield",
      "outputs": [],
      "stateMutability": "nonpayable",
      "type": "function"
    },
    {
      "inputs": [],
      "name": "symbol",
      "outputs": [
        {
          "internalType": "string",
          "name": "",
          "type": "string"
        }
      ],
      "stateMutability": "view",
      "type": "function"
    },
    {
      "inputs": [],
      "name": "totalSupply",
      "outputs": [
        {
          "internalType": "uint256",
          "name": "",
          "type": "uint256"
        }
      ],
      "stateMutability": "view",
      "type": "function"
    },
    {
      "inputs": [
        {
          "internalType": "address",
          "name": "to",
          "type": "address"
        },
        {
          "internalType": "uint256",
          "name": "value",
          "type": "uint256"
        }
      ],
      "name": "transfer",
      "outputs": [
        {
          "internalType": "bool",
          "name": "",
          "type": "bool"
        }
      ],
      "stateMutability": "nonpayable",
      "type": "function"
    },
    {
      "inputs": [
        {
          "internalType": "address",
          "name": "from",
          "type": "address"
        },
        {
          "internalType": "address",
          "name": "to",
          "type": "address"
        },
        {
          "internalType": "uint256",
          "name": "value",
          "type": "uint256"
        }
      ],
      "name": "transferFrom",
      "outputs": [
        {
          "internalType": "bool",
          "name": "",
          "type": "bool"
        }
      ],
      "stateMutability": "nonpayable",
      "type": "function"
    }
  ],
  "bytecode": "0x60806040523480156200001157600080fd5b5060405162001b4c38038062001b4c833981810160405281019062000037919062000486565b6040518060400160405280600981526020017f476f6c64546f6b656e00000000000000000000000000000000000000000000008152506040518060400160405280600381526020017f47544b00000000000000000000000000000000000000000000000000000000008152508160039081620000b491906200073d565b508060049081620000c691906200073d565b505050620000db33836200012460201b60201c565b80600560006101000a81548173ffffffffffffffffffffffffffffffffffffffff021916908373ffffffffffffffffffffffffffffffffffffffff160217905550505062000927565b600073ffffffffffffffffffffffffffffffffffffffff168273ffffffffffffffffffffffffffffffffffffffff1603620001995760006040517fec442f0500000000000000000000000000000000000000000000000000000000815260040162000190919062000835565b60405180910390fd5b620001ad60008383620001b160201b60201c565b5050565b600073ffffffffffffffffffffffffffffffffffffffff168373ffffffffffffffffffffffffffffffffffffffff160362000207578060026000828254620001fa919062000881565b92505081905550620002dd565b60008060008573ffffffffffffffffffffffffffffffffffffffff1673ffffffffffffffffffffffffffffffffffffffff1681526020019081526020016000205490508181101562000296578381836040517fe450d38c0000000000000000000000000000000000000000000000000000000081526004016200028d93929190620008cd565b60405180910390fd5b8181036000808673ffffffffffffffffffffffffffffffffffffffff1673ffffffffffffffffffffffffffffffffffffffff16815260200190815260200160002081905550505b600073ffffffffffffffffffffffffffffffffffffffff168273ffffffffffffffffffffffffffffffffffffffff160362000328578060026000828254039250508190555062000375565b806000808473ffffffffffffffffffffffffffffffffffffffff1673ffffffffffffffffffffffffffffffffffffffff168152602001908152602001600020600082825401925050819055505b8173ffffffffffffffffffffffffffffffffffffffff168373ffffffffffffffffffffffffffffffffffffffff167fddf252ad1be2c89b69c2b068fc378daa952ba7f163c4a11628f55a4df523b3ef83604051620003d491906200090a565b60405180910390a3505050565b600080fd5b6000819050919050565b620003fb81620003e6565b81146200040757600080fd5b50565b6000815190506200041b81620003f0565b92915050565b600073ffffffffffffffffffffffffffffffffffffffff82169050919050565b60006200044e8262000421565b9050919050565b620004608162000441565b81146200046c57600080fd5b50565b600081519050620004808162000455565b92915050565b60008060408385031215620004a0576200049f620003e1565b5b6000620004b0858286016200040a565b9250506020620004c3858286016200046f565b9150509250929050565b600081519050919050565b7f4e487b7100000000000000000000000000000000000000000000000000000000600052604160045260246000fd5b7f4e487b7100000000000000000000000000000000000000000000000000000000600052602260045260246000fd5b600060028204905060018216806200054f57607f821691505b60208210810362000565576200056462000507565b5b50919050565b60008190508160005260206000209050919050565b60006020601f8301049050919050565b600082821b905092915050565b600060088302620005cf7fffffffffffffffffffffffffffffffffffffffffffffffffffffffffffffffff8262000590565b620005db868362000590565b95508019841693508086168417925050509392505050565b6000819050919050565b60006200061e620006186200061284620003e6565b620005f3565b620003e6565b9050919050565b6000819050919050565b6200063a83620005fd565b62000652620006498262000625565b8484546200059d565b825550505050565b600090565b620006696200065a565b620006768184846200062f565b505050565b5b818110156200069e57620006926000826200065f565b6001810190506200067c565b5050565b601f821115620006ed57620006b7816200056b565b620006c28462000580565b81016020851015620006d2578190505b620006ea620006e18562000580565b8301826200067b565b50505b505050565b600082821c905092915050565b60006200071260001984600802620006f2565b1980831691505092915050565b60006200072d8383620006ff565b9150826002028217905092915050565b6200074882620004cd565b67ffffffffffffffff811115620007645762000763620004d8565b5b62000770825462000536565b6200077d828285620006a2565b600060209050601f831160018114620007b55760008415620007a0578287015190505b620007ac85826200071f565b8655506200081c565b601f198416620007c5866200056b565b60005b82811015620007ef57848901518255600182019150602085019450602081019050620007c8565b868310156200080f57848901516200080b601f891682620006ff565b8355505b6001600288020188555050505b505050505050565b6200082f8162000441565b82525050565b60006020820190506200084c600083018462000824565b92915050565b7f4e487b7100000000000000000000000000000000000000000000000000000000600052601160045260246000fd5b60006200088e82620003e6565b91506200089b83620003e6565b9250828201905080821115620008b657620008b562000852565b5b92915050565b620008c781620003e6565b82525050565b6000606082019050620008e4600083018662000824565b620008f36020830185620008bc565b620009026040830184620008bc565b949350505050565b6000602082019050620009216000830184620008bc565b92915050565b61121580620009376000396000f3fe608060405234801561001057600080fd5b50600436106100a95760003560e01c8063313ce56711610071578063313ce5671461016857806349db61be1461018657806370a08231146101a257806395d89b41146101d2578063a9059cbb146101f0578063dd62ed3e14610220576100a9565b806306fdde03146100ae578063095ea7b3146100cc57806318160ddd146100fc5780631a23a4331461011a57806323b872dd14610138575b600080fd5b6100b6610250565b6040516100c39190610c8c565b60405180910390f35b6100e660048036038101906100e19190610d47565b6102e2565b6040516100f39190610da2565b60405180910390f35b610104610305565b6040516101119190610dcc565b60405180910390f35b61012261030f565b60405161012f9190610e46565b60405180910390f35b610152600480360381019061014d9190610e61565b610335565b60405161015f9190610da2565b60405180910390f35b610170610364565b60405161017d9190610ed0565b60405180910390f35b6101a0600480360381019061019b9190610f21565b61036d565b005b6101bc60048036038101906101b79190610f61565b610458565b6040516101c99190610dcc565b60405180910390f35b6101da6104a0565b6040516101e79190610c8c565b60405180910390f35b61020a60048036038101906102059190610d47565b610532565b6040516102179190610da2565b60405180910390f35b61023a60048036038101906102359190610f8e565b610555565b6040516102479190610dcc565b60405180910390f35b60606003805461025f90610ffd565b80601f016020809104026020016040519081016040528092919081815260200182805461028b90610ffd565b80156102d85780601f106102ad576101008083540402835291602001916102d8565b820191906000526020600020905b8154815290600101906020018083116102bb57829003601f168201915b5050505050905090565b6000806102ed6105dc565b90506102fa8185856105e4565b600191505092915050565b6000600254905090565b600560009054906101000a900473ffffffffffffffffffffffffffffffffffffffff1681565b6000806103406105dc565b905061034d8582856105f6565b61035885858561068a565b60019150509392505050565b60006012905090565b8061037733610458565b10156103b8576040517f08c379a00000000000000000000000000000000000000000000000000000000081526004016103af9061107a565b60405180910390fd5b6103c2338261077e565b600560009054906101000a900473ffffffffffffffffffffffffffffffffffffffff1673ffffffffffffffffffffffffffffffffffffffff1663a038e395836001846040518463ffffffff1660e01b8152600401610422939291906110e4565b600060405180830381600087803b15801561043c57600080fd5b505af1158015610450573d6000803e3d6000fd5b505050505050565b60008060008373ffffffffffffffffffffffffffffffffffffffff1673ffffffffffffffffffffffffffffffffffffffff168152602001908152602001600020549050919050565b6060600480546104af90610ffd565b80601f01602080910402602001604051908101604052809291908181526020018280546104db90610ffd565b80156105285780601f106104fd57610100808354040283529160200191610528565b820191906000526020600020905b81548152906001019060200180831161050b57829003601f168201915b5050505050905090565b60008061053d6105dc565b905061054a81858561068a565b600191505092915050565b6000600160008473ffffffffffffffffffffffffffffffffffffffff1673ffffffffffffffffffffffffffffffffffffffff16815260200190815260200160002060008373ffffffffffffffffffffffffffffffffffffffff1673ffffffffffffffffffffffffffffffffffffffff16815260200190815260200160002054905092915050565b600033905090565b6105f18383836001610800565b505050565b60006106028484610555565b90507fffffffffffffffffffffffffffffffffffffffffffffffffffffffffffffffff81146106845781811015610674578281836040517ffb8f41b200000000000000000000000000000000000000000000000000000000815260040161066b9392919061112a565b60405180910390fd5b61068384848484036000610800565b5b50505050565b600073ffffffffffffffffffffffffffffffffffffffff168373ffffffffffffffffffffffffffffffffffffffff16036106fc5760006040517f96c6fd1e0000000000000000000000000000000000000000000000000000000081526004016106f39190611161565b60405180910390fd5b600073ffffffffffffffffffffffffffffffffffffffff168273ffffffffffffffffffffffffffffffffffffffff160361076e5760006040517fec442f050000000000000000000000000000000000000000000000000000000081526004016107659190611161565b60405180910390fd5b6107798383836109d7565b505050565b600073ffffffffffffffffffffffffffffffffffffffff168273ffffffffffffffffffffffffffffffffffffffff16036107f05760006040517f96c6fd1e0000000000000000000000000000000000000000000000000000000081526004016107e79190611161565b60405180910390fd5b6107fc826000836109d7565b5050565b600073ffffffffffffffffffffffffffffffffffffffff168473ffffffffffffffffffffffffffffffffffffffff16036108725760006040517fe602df050000000000000000000000000000000000000000000000000000000081526004016108699190611161565b60405180910390fd5b600073ffffffffffffffffffffffffffffffffffffffff168373ffffffffffffffffffffffffffffffffffffffff16036108e45760006040517f94280d620000000000000000000000000000000000000000000000000000000081526004016108db9190611161565b60405180910390fd5b81600160008673ffffffffffffffffffffffffffffffffffffffff1673ffffffffffffffffffffffffffffffffffffffff16815260200190815260200160002060008573ffffffffffffffffffffffffffffffffffffffff1673ffffffffffffffffffffffffffffffffffffffff1681526020019081526020016000208190555080156109d1578273ffffffffffffffffffffffffffffffffffffffff168473ffffffffffffffffffffffffffffffffffffffff167f8c5be1e5ebec7d5bd14f71427d1e84f3dd0314c0f7b2291e5b200ac8c7c3b925846040516109c89190610dcc565b60405180910390a35b50505050565b600073ffffffffffffffffffffffffffffffffffffffff168373ffffffffffffffffffffffffffffffffffffffff1603610a29578060026000828254610a1d91906111ab565b92505081905550610afc565b60008060008573ffffffffffffffffffffffffffffffffffffffff1673ffffffffffffffffffffffffffffffffffffffff16815260200190815260200160002054905081811015610ab5578381836040517fe450d38c000000000000000000000000000000000000000000000000000000008152600401610aac9392919061112a565b60405180910390fd5b8181036000808673ffffffffffffffffffffffffffffffffffffffff1673ffffffffffffffffffffffffffffffffffffffff16815260200190815260200160002081905550505b600073ffffffffffffffffffffffffffffffffffffffff168273ffffffffffffffffffffffffffffffffffffffff1603610b455780600260008282540392505081905550610b92565b806000808473ffffffffffffffffffffffffffffffffffffffff1673ffffffffffffffffffffffffffffffffffffffff168152602001908152602001600020600082825401925050819055505b8173ffffffffffffffffffffffffffffffffffffffff168373ffffffffffffffffffffffffffffffffffffffff167fddf252ad1be2c89b69c2b068fc378daa952ba7f163c4a11628f55a4df523b3ef83604051610bef9190610dcc565b60405180910390a3505050565b600081519050919050565b600082825260208201905092915050565b60005b83811015610c36578082015181840152602081019050610c1b565b60008484015250505050565b6000601f19601f8301169050919050565b6000610c5e82610bfc565b610c688185610c07565b9350610c78818560208601610c18565b610c8181610c42565b840191505092915050565b60006020820190508181036000830152610ca68184610c53565b905092915050565b600080fd5b600073ffffffffffffffffffffffffffffffffffffffff82169050919050565b6000610cde82610cb3565b9050919050565b610cee81610cd3565b8114610cf957600080fd5b50565b600081359050610d0b81610ce5565b92915050565b6000819050919050565b610d2481610d11565b8114610d2f57600080fd5b50565b600081359050610d4181610d1b565b92915050565b60008060408385031215610d5e57610d5d610cae565b5b6000610d6c85828601610cfc565b9250506020610d7d85828601610d32565b9150509250929050565b60008115159050919050565b610d9c81610d87565b82525050565b6000602082019050610db76000830184610d93565b92915050565b610dc681610d11565b82525050565b6000602082019050610de16000830184610dbd565b92915050565b6000819050919050565b6000610e0c610e07610e0284610cb3565b610de7565b610cb3565b9050919050565b6000610e1e82610df1565b9050919050565b6000610e3082610e13565b9050919050565b610e4081610e25565b82525050565b6000602082019050610e5b6000830184610e37565b92915050565b600080600060608486031215610e7a57610e79610cae565b5b6000610e8886828701610cfc565b9350506020610e9986828701610cfc565b9250506040610eaa86828701610d32565b9150509250925092565b600060ff82169050919050565b610eca81610eb4565b82525050565b6000602082019050610ee56000830184610ec1565b92915050565b6000819050919050565b610efe81610eeb565b8114610f0957600080fd5b50565b600081359050610f1b81610ef5565b92915050565b60008060408385031215610f3857610f37610cae565b5b6000610f4685828601610f0c565b9250506020610f5785828601610d32565b9150509250929050565b600060208284031215610f7757610f76610cae565b5b6000610f8584828501610cfc565b91505092915050565b60008060408385031215610fa557610fa4610cae565b5b6000610fb385828601610cfc565b9250506020610fc485828601610cfc565b9150509250929050565b7f4e487b7100000000000000000000000000000000000000000000000000000000600052602260045260246000fd5b6000600282049050600182168061101557607f821691505b60208210810361102857611027610fce565b5b50919050565b7f496e73756666696369656e742062616c616e6365000000000000000000000000600082015250565b6000611064601483610c07565b915061106f8261102e565b602082019050919050565b6000602082019050818103600083015261109381611057565b9050919050565b6110a381610eeb565b82525050565b6000819050919050565b60006110ce6110c96110c4846110a9565b610de7565b610d11565b9050919050565b6110de816110b3565b82525050565b60006060820190506110f9600083018661109a565b61110660208301856110d5565b6111136040830184610dbd565b949350505050565b61112481610cd3565b82525050565b600060608201905061113f600083018661111b565b61114c6020830185610dbd565b6111596040830184610dbd565b949350505050565b6000602082019050611176600083018461111b565b92915050565b7f4e487b7100000000000000000000000000000000000000000000000000000000600052601160045260246000fd5b60006111b682610d11565b91506111c183610d11565b92508282019050808211156111d9576111d861117c565b5b9291505056fea2646970667358221220698d3a0962b8a808aab6ae0722a3d98f34e267a2bd1ee166cfa7372aaf41011164736f6c63430008180033",
  "linkReferences": {},
  "deployedLinkReferences": {}
}